:1000000000400020C11E00000D1F00000D1F000059
:1000100000000000000000000000000000000000E0
:100020000000000000000000000000000D1F0000A4
:1000300000000000000000000D1F00000D1F000068
:100040000D1F00000D1F00000D1F00000D1F000000
:100050000D1F00000D1F0000000000000D1F00001C
:100060000D1F00000D1F00000D1F00000D1F0000E0
:100070000D1F00000D1F00000D1F00000D1F0000D0
:100080000D1F00000D1F0000000000000D1F0000EC
:100090000D1F00000D1F00000D1F00000D1F0000B0
:1000A0000D1F00000D1F00000D1F00000D1F0000A0
:1000B0000D1F00000D1F00000D1F00000D1F000090
:1000C0007047C046002B11D1002A0FD1002900D162
:1000D000002802D00021C943081C07B4024802A12D
:1000E0004018029003BDC046D9FFFFFF03B4684625
:1000F00001B5029800F02EF8019B9E4602B00CBCA0
:100100007047C046F0B515042D0C0F0001002E00FD
:10011000C64684460004140C000C090C46434D43AB
:10012000604361434019340C241800B5A54203D93B
:100130008020400280464144250C6D186146594399
:100140007A43300449192404000C2018891804BC8F
:100150009046F0BDF0B557464E464546DE46E0B502
:1001600004000D009246994683B08B4230D82DD0C2
:100170004946504600F0D8F829000600200000F05B
:10018000D3F8331A9846203B9B4633D45A465346FD
:10019000934042461F00534693401E00AF423AD858
:1001A000AF4200D178E05B46A41BBD41002B00DAD2
:1001B00075E0002200230092019301235A469340E8
:1001C0000193012342469340009328E08242CFD915
:1001D00000220023009201930C9B002B01D01C6095
:1001E0005D600098019903B03CBC90469946A246D8
:1001F000AB46F0BD424620239B1A5246DA404146A8
:1002000013004A468A40170042461F435346934014
:100210001E00AF42C4D9002200230092019343463E
:10022000002BD9D0FB0772081A4346467B080EE024
:10023000AB4201D1A2420CD8A41A9D41012024193D
:100240006D410021013E24184D41002E06D0AB42E5
:10025000EED9013E24196D41002EF8D10098019984
:100260005B4600196941002B24DB2B005A464446AB
:10027000D3402A00E2401C005B461500002B2ADB1D
:1002800026009E40330026004746BE403200801ABA
:100290009941009001919FE7A342BCD883E7424671
:1002A000202300219B1A0022009101920122DA40B2
:1002B000019286E7424620239B1A2A0046469A402E
:1002C0002300F340444613432A00E2401C005B46EF
:1002D0001500002BD4DA42462F0020232600974039
:1002E0009B1ADE403B003343CDE7C0461C2101236F
:1002F0001B04984201D3000C10391B0A984201D309
:10030000000A08391B09984201D30009043902A2E6
:10031000105C40187047C04604030202010101014D
:10032000000000000000000010B5002903D1FFF715
:10033000DDFF203002E0081CFFF7D8FF10BDC046EB
:1003400080B500AF012001F02FFCC0239B041800F2
:1003500001F00CFC80235B02180001F045FC012039
:1003600001F0C8F9C04601F0E3F9031EFBD0214BB0
:10037000180001F09DFB012001F0C8FB002001F0F6
:10038000C5FB012001F0A2FB002001F09FFB002033
:1003900001F08EFB012000F08DFE012000F07EFFB9
:1003A000C04600F02FFE031EFBD000F021FE00200F
:1003B00000F080FE022000F057FF032000F0F0FE66
:1003C000002000F095FE012000F0ACFE80235B00D1
:1003D000180000F0C7FE084B01220421180001F0AC
:1003E0004FF8054B0421180000F0E2F9C046BD4665
:1003F00080BDC046DF9B5713C00C004080B582B063
:1004000000AF80239B04180001F0B0FB012001F035
:10041000CBFB012001F09CF9012000F0DBFE00F095
:1004200011FE012000F046FE032000F0A9F9012092
:1004300000F022FEC04600F00FFE031EFBD000F0CD
:1004400001FE00F005FF0200BB1D1A80002000F035
:1004500031FEC04600F0E6FD031EFBD1002001F096
:10046000A3FB002001F074F9002000F0B3FEBB1DD7
:100470001B881800BD4602B080BD80B582B000AFB9
:100480003B1D00221A80002001F070FB012001F0CA
:100490008BFB012000F0BEFE012000F00BFEC046E9
:1004A000C046C046C046C046C046C046C046C0461C
:1004B000C046012000F0E0FD00F0C4FDFB1D00225D
:1004C0001A7014E0C04600F0C7FD031EFBD000F018
:1004D000B9FD00F0BDFE030099B23B1D3A1D128824
:1004E0008A181A80FB1D1A78FB1D01321A70FB1D39
:1004F0001B78072BE6D9002000F0DCFDC04600F099
:1005000091FD031EFBD1002001F04EFB002000F006
:1005100081FE3B1D1B88DB089BB21800BD4602B064
:1005200080BD0000B0B584B000AF00F031FDFFF732
:1005300007FFFFF763FF02001C4B1A60FFF79DFFE8
:1005400003001C0000231D00194B1C605D60194B4B
:100550001B881A0013005B009B18BB60DB17FB6055
:10056000134B1A685B68B868F968FFF7CBFD0200A7
:100570000B0010001900FA2292000023FFF7C2FDC1
:1005800002000B0010001900084B1A6813001B032F
:100590009B1A3B6000237B603A687B68FFF792FD03
:1005A00002000B00044B1A60C3E7C0460C00002099
:1005B0001000002008FDFF1F0800002090B583B048
:1005C00000AF02003960FB1D1A70FB1D1B787F2BEA
:1005D00028D82F4AFB1D1B785BB29B08C0339B00B9
:1005E0009B58FA1D1278110003220A40D200FF2105
:1005F00091400A00D2431A4011003B689B01FF2240
:100600001A40FB1D1B78180003230340DB009A40AF
:100610001F48FB1D1B785BB29B080A43C0339B003D
:100620001A5031E01B4AFB1D1B7819000F230B40A9
:10063000083B9B0806339B00D31804331B68FA1D44
:100640001278110003220A40D200FF2191400A00D3
:10065000D2431A4011003B689B01FF221A40FB1D48
:100660001B78180003230340DB009A400948FB1D58
:100670001B781C000F232340083B9B080A430633CA
:100680009B00C31804331A60C046BD4603B090BD3A
:1006900000E100E000ED00E080B582B000AF7860DE
:1006A0007B685A1E80235B049A4201D3012310E029
:1006B0000A4B7A68013A5A6001235B420321180011
:1006C000FFF77CFF054B00229A60044B07221A605B
:1006D00000231800BD4602B080BDC04610E000E017
:1006E00080B500AF80235B041800FFF7D5FF034BF4
:1006F00005221A60C046BD4680BDC04610E000E03D
:1007000080B584B000AF78600C4B9B68FB607A6862
:10071000F0231B049A4202D9F0231B047B60C046DD
:10072000064B9B68FA68D31A1B021B0A7A689A4226
:10073000F6D8C046C046BD4604B080BD10E000E01B
:1007400080B584B000AF78603960FA235B01FB604C
:100750000DE03B68002B03D03B689847031E0AD18D
:10076000FB681800FFF7CCFF7B68013B7B607B6870
:10077000002BEED100E0C046BD4604B080BD0000B5
:1007800080B584B000AF78607B68084A934201D995
:10079000064B7B607B68DB00FB60FB681800FFF7A3
:1007A000AFFFC046BD4604B080BDC046A086010074
:1007B00090B587B000AF7860396008243A1939687D
:1007C0007B68180000F0FDFE21007B181B683A686A
:1007D0009A4210D10A00BB18DB79002B0BD1BB1851
:1007E0005B79012B07D1BB189B79002B03D1BB1878
:1007F0001B79032B15D010217B183A681A607B18DF
:100800000022DA717B1801225A717B1800229A713A
:100810007B1803221A717A187B681100180000F007
:100820004EFEC046BD4607B090BD90B589B000AF42
:10083000F860B960FB1D1A7010243A19B968FB689A
:10084000180000F0BEFE21007B181B68BA689A42AF
:100850001ED10A00BB18DB79002B19D1FB1D1B78B8
:10086000002B03D1BB185B79002B11D1FB1D1B782A
:10087000012B04D11023FB185B79012B08D1102226
:10088000BB189B79002B03D1BB181B79012B1FD000
:1008900018217B18BA681A607B180022DA71FB1DD8
:1008A0001B78002B03D17B1800225A7103E0182318
:1008B000FB1801225A7118217B1800229A717B18AB
:1008C00001221A717A18FB681100180000F0F7FD78
:1008D000C046BD4609B090BD90B585B000AF786008
:1008E000396008243A1939687B68180000F069FEFD
:1008F0003B191B79012B0CD03A687B68110018005A
:1009000000F0E0FE39687B6801221800FFF78DFFD8
:100910000BE039687B6801221800FFF786FF3A6810
:100920007B681100180000F0CDFEC046BD4605B042
:1009300090BD000080B500AF0B4B0021180000F007
:1009400091FD0A4B0021180000F08CFD084B00219E
:10095000180000F087FD074B0021180000F082FD11
:10096000C046BD4680BDC046000C0040400C004063
:10097000800C0040C00C004080B500AF034B01224A
:1009800052425A60C046BD4680BDC046000D004080
:1009900080B500AFFFF7F0FF9A4B01211800FFF779
:1009A0009BFF984B02211800FFF796FF954B0421FF
:1009B0001800FFF791FF934B08211800FFF78CFFF9
:1009C000904B10211800FFF787FF8E4B2021180055
:1009D000FFF782FF8B4B40211800FFF77DFF894B0B
:1009E00080211800FFF778FF80235B00854A1900FB
:1009F0001000FFF771FF80239B00824A190010004E
:100A0000FFF76AFF8023DB007E4A19001000FFF722
:100A100063FF80231B017B4A19001000FFF75CFF76
:100A200080235B01774A19001000FFF755FF8023F0
:100A30009B01744A19001000FFF74EFF8023DB0171
:100A4000704A19001000FFF747FF80231B026D4A10
:100A500019001000FFF740FF6B4B01211800FFF752
:100A60003BFF694B02211800FFF736FF664B04215C
:100A70001800FFF731FF644B08211800FFF72CFF27
:100A8000614B10211800FFF727FF5F4B2021180052
:100A9000FFF722FF5C4B40211800FFF71DFF5A4B68
:100AA00080211800FFF718FF80235B00564A1900C9
:100AB0001000FFF711FF80239B00534A190010001C
:100AC000FFF70AFF8023DB004F4A19001000FFF7F1
:100AD00003FF80231B014C4A19001000FFF7FCFEA6
:100AE00080235B01484A19001000FFF7F5FE8023C0
:100AF0009B01454A19001000FFF7EEFE8023DB0141
:100B0000414A19001000FFF7E7FE80231B023E4A0E
:100B100019001000FFF7E0FE3C4B04211800FFF71E
:100B2000DBFE3A4B08211800FFF7D6FE374B1021A9
:100B30001800FFF7D1FE354B20211800FFF7CCFE3F
:100B4000324B40211800FFF7C7FE304B80211800C0
:100B5000FFF7C2FE80235B002C4A19001000FFF74C
:100B6000BBFE80239B00294A19001000FFF7B4FE4A
:100B70008023DB00254A19001000FFF7ADFE80231B
:100B80001B01224A19001000FFF7A6FE80235B011B
:100B90001E4A19001000FFF79FFE1D4B012118008F
:100BA000FFF79AFE1A4B02211800FFF795FE184B2B
:100BB00004211800FFF790FE154B08211800FFF7DD
:100BC0008BFE134B10211800FFF786FE104B2021DF
:100BD0001800FFF781FE0E4B40211800FFF77CFE46
:100BE00080231B010A4A19001000FFF775FE8023BD
:100BF0005B01074A19001000FFF76EFEC046BD46B4
:100C000080BDC046000C0040400C0040800C0040FD
:100C1000C00C004080B500AF534B0121180001F01B
:100C200001F8524B0121180000F0FCFF504B01214C
:100C3000180000F0F7FF4F4B0121180000F0F2FF01
:100C40004D4B0121180000F0EDFF4C4B0121180025
:100C500000F0E8FF4A4B0121180000F0E3FF802379
:100C60005B040121180000F0DDFF464B0121180054
:100C700000F0D8FF444B0121180000F0D3FF434B94
:100C80000021180000F0CEFF414B0021180000F0B9
:100C9000C9FF404B0121180000F0C4FF3E4B012169
:100CA000180000F0BFFF3D4B0121180000F0BAFF13
:100CB0003B4B0121180000F0B5FF80239B0401216C
:100CC000180000F0AFFF374B0121180000F0AAFF19
:100CD000354B0121180000F0A5FF344B012118000D
:100CE00000F0A0FF324B0121180000F09BFF314BB8
:100CF0000121180000F096FF2F4B0121180000F091
:100D000091FF2E4B0121180000F08CFF2C4B01218C
:100D1000180000F087FF2B4B0121180000F082FF24
:100D2000294B0121180000F07DFFC0239B04012105
:100D3000180000F077FF254B0121180000F072FF2A
:100D4000234B0121180000F06DFF224B01211800F8
:100D500000F068FF8023DB040121180000F062FF2F
:100D6000C046BD4680BDC0461F0000011000000106
:100D70000700000106000001050000010400000159
:100D80000200000108000002070000020600000245
:100D9000050000020400000203000002020000023D
:100DA00001000002180000031200000310000003FD
:100DB0000F0000030E0000030D0000030C000003F1
:100DC0000900000308000003010000030400000400
:100DD000030000040200000480B586B000AF3B1D94
:100DE0001F221A603B1D30225A603B1D0022DA6030
:100DF0003B1D00229A603B1D00221A743B1D180007
:100E000000F08CFF002000F01BFEC046BD4606B07F
:100E100080BD80B588B000AF18217B1800221A6011
:100E20007B1801221A717B18180000F059FF3B1D36
:100E300000221A603B1D00225A603B1D00229A606E
:100E40003B1D0022DA603B1D01221A743B1D01226A
:100E50005A743B1D180000F082FFC046BD4608B022
:100E600080BD80B582B000AF0200FB1D1A70FB1D73
:100E70001B78012B06D1012000F0D5FA012000F0EB
:100E8000B3FA05E0002000F0CEFA002000F0ACFA42
:100E9000002000F087FA002000F062FA002000F045
:100EA0003DFA002000F018FAC046BD4602B080BDF1
:100EB00080B500AFFFF790FFFFF7ABFFFFF7AAFE8B
:100EC000002000F0DBFD012000F0AEFF002000F06C
:100ED000C9FF0020FFF7C5FFC046BD4680BD00002A
:100EE00080B500AF0F4B0121180000F0EBFB0D4B5C
:100EF0000221180000F0E6FB0A4B00220121180035
:100F0000FFF793FC074B002202211800FFF78DFC2E
:100F1000054B002201211800FFF787FCC046BD46A3
:100F200080BDC046800C0040000C004080B584B0FD
:100F300000AF0200FB1D1A700F23FB1800221A706D
:100F400017E0124B0121180000F0C8FB00216420BB
:100F5000FFF7F6FB0D4B0121180000F0B3FB002159
:100F60006420FFF7EDFB0F217B181A787B18013204
:100F70001A700F23FA18FB1D12781B789A42E0D3DF
:100F8000C046C046BD4604B080BDC046800C00408F
:100F900080B500AF72B6C046FFF7A2FB00210A2061
:100FA000FFF7CEFBFFF784FF012000F0FFFEFFF705
:100FB000C1FCFFF7EDFC002000F072FFFFF790FF8F
:100FC00000216420FFF7BCFB0520FFF7AFFF62B6EE
:100FD000C046C046BD4680BD80B500AF024B034A47
:100FE0001A60C046BD4680BD0000002000127A0095
:100FF00080B500AF024B10221A60C046BD4680BDCE
:101000000050014080B500AF054B1B681022134013
:1010100001D0012300E000231800BD4680BDC0467A
:101020000050014080B500AF054B1B6808221340FB
:1010300001D0012300E000231800BD4680BDC0465A
:101040000050014080B500AF024B01221A60C0463B
:10105000BD4680BD0050014080B500AF054B1B6808
:101060000122134001D0012300E000231800BD46F7
:1010700080BDC0460050014080B582B000AF020084
:10108000FB1D1A70FB1D1B78012B06D1084B9A68BB
:10109000074B02210A439A6005E0054B9A68044B0E
:1010A00002218A439A60C046BD4602B080BDC04658
:1010B0000050014080B582B000AF0200FB1D1A70E5
:1010C000FB1D1B78012B06D1084B9A68074B0121A9
:1010D0000A439A6005E0054B9A68044B01218A4354
:1010E0009A60C046BD4602B080BDC0460050014077
:1010F00080B584B000AF7860094BDB68FB60FB68AB
:101100009B009B08FB607B689B0F9B07FA6813435F
:10111000FB60034BFA68DA60C046BD4604B080BD90
:101120000050014080B582B000AF0200FB1D1A7074
:10113000FB1D1B78012B07D1084BDA68074B802178
:1011400089000A43DA6005E0044BDA68034B04497E
:101150000A40DA60C046BD4602B080BD0050014082
:10116000FFFDFFFF80B584B000AF78600A4BDB68FD
:10117000FB60FB68094A1340FB607A6880235B00D0
:101180001340FA681343FB60034BFA68DA60C04609
:10119000BD4604B080BDC04600500140FFFEFFFFC9
:1011A00080B584B000AF7860094B1B69FB60FB68B9
:1011B00003229343FB607B6803221340FA681343C6
:1011C000FB60034BFA681A61C046BD4604B080BD9F
:1011D0000050014080B582B000AF0200FB1D1A70C4
:1011E000FB1D1B78012B07D1084B5A69074B802147
:1011F00049020A435A6105E0044B5A69034B04490A
:101200000A405A61C046BD4602B080BD0050014050
:10121000FFFFFEFF80B582B000AF0200FB1D1A7019
:10122000FB1D1B78012B06D1084B5A69074B202167
:101230000A435A6105E0054B5A69044B20218A4351
:101240005A61C046BD4602B080BDC0460050014054
:1012500080B500AF034B9B691B041B0C1800BD46F7
:1012600080BDC0460050014080B584B000AF7860BA
:10127000094BDB69FB60FB6802229343FB607B68E0
:1012800002221340FA681343FB60034BFA68DA61E9
:10129000C046BD4604B080BD0050014080B582B05C
:1012A00000AF0200FB1D1A70FB1D1B78012B06D13D
:1012B000084BDA69074B01210A43DA6105E0054B67
:1012C000DA69044B01218A43DA61C046BD4602B0A7
:1012D00080BDC0460050014080B582B000AF020022
:1012E000FB1D1A70FB1D1B78012B09D18023DB0528
:1012F0005A688023DB05802189010A435A6007E090
:101300008023DB055A688023DB0503490A405A60C5
:10131000C046BD4602B080BDFFDFFFFF80B582B092
:1013200000AF0200FB1D1A70FB1D1B78012B09D1B9
:101330008023DB055A688023DB05802109010A43ED
:101340005A6007E08023DB055A688023DB050349E8
:101350000A405A60C046BD4602B080BDFFF7FFFF9D
:1013600080B582B000AF0200FB1D1A70FB1D1B7818
:10137000012B09D18023DB055A688023DB058021FE
:10138000C9000A435A6007E08023DB055A688023BE
:10139000DB0503490A405A60C046BD4602B080BD25
:1013A000FFFBFFFF80B582B000AF0200FB1D1A708B
:1013B000FB1D1B78012B09D18023DB055A68802394
:1013C000DB05802149000A435A6007E08023DB05E2
:1013D0005A688023DB0503490A405A60C046BD466F
:1013E00002B080BDFFFEFFFF80B582B000AF0200FB
:1013F000FB1D1A70FB1D1B78012B08D18023DB0518
:101400005A688023DB0502210A435A6007E08023E3
:10141000DB055A688023DB0502218A435A60C046F7
:10142000BD4602B080BD80B582B000AF0200FB1D9A
:101430001A70FB1D1B78012B08D18023DB055A682D
:101440008023DB0501210A435A6007E08023DB0586
:101450005A688023DB0501218A435A60C046BD4695
:1014600002B080BD80B582B000AF786039603B6863
:101470001B041A0C7B681A61C046BD4602B080BDD1
:1014800080B586B000AFF860B960FB1D1A70FB68CC
:101490009B6A7B61FB1D1B78012B04D17A69BB68B9
:1014A00013437B6104E0BB68DA437B6913407B61D3
:1014B000FB687A699A62C046BD4606B080BD80B5B9
:1014C00086B000AF7860396000237B6100233B6108
:1014D0000023FB6000237B616BE001227B699A4063
:1014E00013003B613B681A683B691340FB60FA6874
:1014F0003B699A425AD17B681B68BB603B69DA43FF
:10150000BB681340BB603B68DB791A007B699A407B
:1015100013001A00BB681343BB607B68BA681A608B
:101520007B685B68BB603B69DA43BB681340BB60A8
:101530003B689B791A007B699A4013001A00BB68CC
:101540001343BB607B68BA685A607B689B68BB606A
:101550003B69DA43BB681340BB603B685B791A00A8
:101560007B699A4013001A00BB681343BB607B6819
:10157000BA689A607B695B0003229A4013003B6162
:101580007B68DB68BB603B69DA43BB681340BB60C8
:101590003B681B791A007B695B009A4013001A00B4
:1015A000BB681343BB607B68BA68DA607B69013350
:1015B0007B617B690F2B90D9C046C046BD4606B003
:1015C00080BD80B588B000AFF860B9607A60002354
:1015D000BB610023FB610DE00122FB699A4013000F
:1015E0001A00BB681340BB61BB69002B06D1FB69C5
:1015F0000133FB61FB690F2BEED900E0C046FB69AC
:101600000F2B5BD8FB69BB617B68BA681A60FB680B
:101610001B68BA681A40BB69DA4013007B617B69BA
:10162000012B03D17B680122DA7102E07B68002282
:10163000DA71FB685B68BA681A40BB69DA4013006C
:101640007B617B69012B03D17B6801229A7102E0E7
:101650007B6800229A71FB689B68BA681A40BB6974
:10166000DA4013007B617B69012B03D17B68012287
:101670005A7102E07B6800225A71FB68DA68BB6924
:101680005B00DA401300032213407B617B69002B6F
:1016900003D17B6800221A7110E07B69012B03D112
:1016A0007B6801221A7109E07B69022B03D17B68F8
:1016B00002221A7102E07B6803221A71C046BD46FD
:1016C00008B080BD80B582B000AF786039607B68BB
:1016D0003A685A61C046BD4602B080BD80B582B04E
:1016E00000AF786039607B683A689A61C046BD4651
:1016F00002B080BD80B582B000AF0200FB1D1A7041
:10170000FB1D1B78012B06D1084B1A68074B0121E2
:101710000A431A6005E0054B1A68044B01218A430D
:101720001A60C046BD4602B080BDC0460C280140CC
:1017300080B500AF054B5B680222134001D0012346
:1017400000E000231800BD4680BDC0460C280140C3
:1017500080B582B000AF0200FB1D1A70FB1D1B7824
:10176000012B06D1084B1A68074B01210A431A6066
:1017700005E0054B1A68044B01218A431A60C046F4
:10178000BD4602B080BDC0461828014080B582B079
:1017900000AF0200FB1D1A70FB1D1B78012B07D147
:1017A000084BDA68074B802109050A43DA6005E037
:1017B000044BDA68034B04490A40DA60C046BD4670
:1017C00002B080BD00020040FFFFFFF780B582B08D
:1017D00000AF0200FB1D1A70FB1D1B78012B07D107
:1017E000084BDA68074B802189040A43DA6005E078
:1017F000044BDA68034B04490A40DA60C046BD4630
:1018000002B080BD00020040FFFFFFFD80B584B044
:1018100000AF78600A4BDB68FB60FB68094A134045
:10182000FB607A68E023DB021340FA681343FB6035
:10183000034BFA68DA60C046BD4604B080BDC046BE
:1018400000020040FFFFF8FF80B584B000AF786071
:101850000A4BDB68FB60FB68094A1340FB607A684F
:10186000E023DB001340FA681343FB60034BFA6884
:10187000DA60C046BD4604B080BDC04600020040EC
:10188000FFF8FFFF80B584B000AF7860094BDB68DC
:10189000FB60FB68C0229343FB607B68C02213405F
:1018A000FA681343FB60034BFA68DA60C046BD4632
:1018B00004B080BD0002004080B584B000AF786005
:1018C000094BDB68FB60FB6807229343FB607B6886
:1018D00007221340FA681343FB60034BFA68DA608F
:1018E000C046BD4604B080BD0002004080B584B053
:1018F00000AF78600A4B1B69FB60FB68094A134024
:10190000FB607A68F0231B031340FA681343FB6003
:10191000034BFA681A61C046BD4604B080BDC0469C
:1019200000020040FFFFF0FF80B582B000AF020070
:10193000FB1D1A70FB1D1B78012B06D1084B1A6981
:10194000074B01210A431A6105E0054B1A69044B54
:1019500001218A431A61C046BD4602B080BDC0461F
:101960000002004080B584B000AF78607B681B0443
:101970007B600A4B9B69FB60FB68094A1340FB6074
:101980007A68FE23DB031340FA681343FB60034BC2
:10199000FA689A61C046BD4604B080BD00020040AE
:1019A000FFFF80FF80B584B000AF7860094B9B6972
:1019B000FB60FB6870229343FB607B6870221340DE
:1019C000FA681343FB60034BFA689A61C046BD4650
:1019D00004B080BD0002004080B584B000AF7860E4
:1019E000094B9B69FB60FB6808229343FB607B68A3
:1019F00008221340FA681343FB60034BFA689A61AC
:101A0000C046BD4604B080BD0002004080B584B031
:101A100000AF7860094B9B69FB60FB68022293432F
:101A2000FB607B6802221340FA681343FB60034BA0
:101A3000FA689A61C046BD4604B080BD000200400D
:101A400080B582B000AF0200FB1D1A70FB1D1B7831
:101A5000012B06D1084B9A69074B01210A439A6171
:101A600005E0054B9A69044B01218A439A61C046FF
:101A7000BD4602B080BDC0460002004080B584B0C3
:101A800000AF7860094B5B6CFB60FB6801229343FD
:101A9000FB607B6801221340FA681343FB60034B31
:101AA000FA685A64C046BD4604B080BD00020040DA
:101AB00080B582B000AF7860034B7A681A65C04683
:101AC000BD4602B080BDC0460002004080B582B075
:101AD00000AF0200FB1D1A70FB1D1B78012B07D104
:101AE000084BDA6D074B802149040A43DA6505E0AB
:101AF000044BDA6D034B04490A40DA65C046BD4623
:101B000002B080BD00020040FFFFFFFE80B582B042
:101B100000AF0200FB1D1A70FB1D1B78012B07D1C3
:101B2000084BDA6D074B802109040A43DA6505E0AA
:101B3000044BDA6D034B04490A40DA65C046BD46E2
:101B400002B080BD00020040FFFF7FFF80B582B081
:101B500000AF7860044B7A687F210A409A66C046DD
:101B6000BD4602B080BDC0460002004080B584B0D2
:101B700000AF78600A4B1B6FFB60FB68094A13409B
:101B8000FB607A68E023DB041340FA681343FB60D0
:101B9000034BFA681A67C046BD4604B080BDC04614
:101BA00000020040FFFFFFF880B582B000AF0200E6
:101BB000FB1D1A70FB1D1B78012B07D1084B1A6FF8
:101BC000074B802149030A431A6705E0044B1A6F4B
:101BD000034B04490A401A67C046BD4602B080BDA7
:101BE00000020040FFFFEFFF80B584B000AF7860D7
:101BF0000A4B1B6FFB60FB68094A1340FB607A6865
:101C0000C0239B021340FA681343FB60034BFA683E
:101C10001A67C046BD4604B080BDC0460002004001
:101C2000FFFFFCFF80B584B000AF78600A00FB1CAA
:101C30001A700023FB607A68F0231B051340802292
:101C4000D20493421DD08022D20493421CD8C022D9
:101C50009204934212D0C0229204934214D880225C
:101C60005204934204D080229204934203D00BE0AA
:101C7000174BFB6009E0174BFB6006E0164BFB605F
:101C800003E0164BFB6000E0C046FB68002B1AD057
:101C90007B68FF2213407B6001227B689A4013001F
:101CA000BB60FB1C1B78002B06D0FB681A68BB6866
:101CB0001A43FB681A6006E0FB681B68BA68D243E7
:101CC0001A40FB681A60C046BD4604B080BDC046DD
:101CD000280200402C020040300200403402004044
:101CE00080B582B000AF78607B681B681800FFF792
:101CF000FDFD7B681B791800FFF716FEC046BD4648
:101D000002B080BD80B582B000AF78607B681800FB
:101D1000FFF728FEC046BD4602B080BD80B582B048
:101D200000AF78607B681B681800FFF7EBFF7B68EB
:101D30005B681800FFF736FE7B689B681800FFF7AA
:101D40004BFE7B68DB681800FFF760FE7B681B7C3E
:101D50001800FFF775FEC046BD4602B080BD80B5D5
:101D600082B000AF78607B681B681800FFF7A4FDA5
:101D70007B685B681800FFF785FD7B689B6818002F
:101D8000FFF762FD7B68DB681800FFF73FFD7B68AB
:101D90001B7C1800FFF71AFD7B685B7C1800FFF7BF
:101DA000F5FCC046BD4602B080BD000080B584B0E1
:101DB00000AF0200FB1D1A70FB1D1B78012B03D125
:101DC000164B1B68FB6012E0FB1D1B78022B03D136
:101DD000134B1B68FB600AE0FB1D1B78032B03D130
:101DE000104B1B68FB6002E00C4B1B68FB60FB6840
:101DF0001A0CFB68DB431B041B0C9A4206D1FB68E0
:101E00007F2213401800FFF7A1FE02E04020FFF7F9
:101E10009DFEC046BD4604B080BDC04640FDFF1FCC
:101E20003CFDFF1F38FDFF1F80B582B000AF0200F0
:101E3000FB1D1A70FB1D1B78012B06D1084B1A687D
:101E4000074B01210A431A6005E0054B1A68044B51
:101E500001218A431A60C046BD4602B080BDC0461B
:101E60000028014080B582B000AF0200FB1D1A704F
:101E7000FB1D1B78012B06D1084B1A68074B01216B
:101E80000A431A6005E0054B1A68044B01218A4396
:101E90001A60C046BD4602B080BDC046042801405D
:101EA00080B582B000AF7860044B7A68D205D20D5D
:101EB0001A63C046BD4602B080BDC0460010014056
:101EC0000C488546002103E00B4B5B58435004311E
:101ED0000A480B4B42189A42F6D30A4A02E0002302
:101EE00013600432084B9A42F9D3FFF775F8FEF7F6
:101EF00019FBFEE700400020181F00000000002032
:101F0000040000200800002018000020FEE7000068
:081F100044E2FF7F0100000024
:041F180000127A0039
:0400000300001EC11A
:00000001FF
