:020000040000FA
:1000000078100020650100006D0100006F01000004
:1000100000000000000000000000000000000000E0
:10002000000000000000000000000000710100005E
:1000300000000000000000007301000075010000D6
:1000400077010000770100007701000077010000D0
:100050007701000077010000000000007701000038
:1000600077010000770100007701000077010000B0
:1000700077010000770100007701000077010000A0
:100080007701000077010000000000007701000008
:100090007701000077010000770100007701000080
:1000A0007701000077010000770100007701000070
:1000B0007701000077010000770100007701000060
:1000C00000F002F800F03EF80CA030C80838241800
:1000D0002D18A246671EAB4654465D46AC4201D180
:1000E00000F030F87E460F3E0FCCB6460126334274
:1000F00000D0FB1AA246AB4633431847DC1300007E
:10010000FC130000103A02D378C878C1FAD852071D
:1001100001D330C830C101D504680C6070470000BD
:100120000023002400250026103A01D378C1FBD813
:10013000520700D330C100D50B6070471FB51FBDFB
:1001400010B510BD00F0C6F81146FFF7F7FF01F03B
:1001500085F900F0DEF803B4FFF7F2FF03BC00F00E
:10016000E5F800000748804707480047FEE7FEE73C
:10017000FEE7FEE7FEE7FEE704480549054A064BB1
:1001800070470000E1130000C1000000780000206B
:10019000781000207808002078080020434351435D
:1001A00030B55C18010C130C0D4692B25D4380B261
:1001B00051432C19054655430A0C09044D19624157
:1001C0005843010C00044019514130BDFEB50546AD
:1001D00010460C46184373D0AE468C460020AD1A2C
:1001E00001469C4167D36646002701243D46B61A66
:1001F0009D4102D313463A462124654676462F0494
:10020000360C3E432D0CB61A9D4104D3150C1B042D
:100210002B4312041034654676462F06360A3E43B9
:100220002D0AB61A9D4104D3150E1B022B43120250
:100230000834654676462F0736093E432D09B61A1F
:100240009D4104D3150F1B012B431201241D65464C
:100250007646AF07B6083E43AD08B61A9D4104D3B3
:10026000950F9B002B439200A41C65467646EF0732
:1002700076083E436D08B61A9D411AD392185B4129
:10028000641C16E00018764665464941B71A9D4140
:100290000191009009D36046B11A98418E46844678
:1002A000009801990025401C6941DD0752082A4346
:1002B0005B08641EE6D57246634603B0F0BDFFE7F7
:1002C00000200146C046C0462A462346F5E770474F
:1002D00070477047754600F025F8AE460500694640
:1002E0005346C008C000854618B020B5FFF744FF4C
:1002F00060BC00274908B6460026C0C5C0C5C0C5B9
:10030000C0C5C0C5C0C5C0C5C0C5403D49008D46BB
:10031000704710B50446C046C0462046FFF71BFF95
:1003200010BD00000048704714000020014918204B
:10033000ABBEFEE72600020070470000012806D190
:100340000649C96901221143044AD16105E0034904
:10035000C96949084900014AD1617047005001400C
:100360000146064AD069022302469A4310460222F9
:100370000A401043014AD06170470000005001401C
:100380000146054AD068800080088A0F9207104312
:10039000014AD0607047000000500140012806D19A
:1003A0000749C96842021143054AD16006E0044981
:1003B000C968012252029143014AD160704700008E
:1003C000005001400146064AD068931502469A4300
:1003D00010461A460A401043014AD0607047000098
:1003E00000500140012806D10649496920221143E5
:1003F000044A516105E00349496920229143014AB9
:100400005161704700500140012806D107494969F0
:1004100002041143054A516106E004494969012279
:1004200012049143014A516170470000005001409D
:10043000012806D10649896801221143044A9160C6
:1004400005E00349896849084900014A91607047FD
:1004500000500140012806D1064989680222114353
:10046000044A916005E00349896802229143014AE8
:1004700091607047005001400148806980B2704728
:10048000005001400448006808210840002801D0BD
:10049000012070470020FCE700500140044800683C
:1004A00010210840002801D0012070470020FCE7FF
:1004B0000050014010200149086070470050014081
:1004C00004480068C007C00F002801D00120704711
:1004D0000020FCE7005001400120014908607047FE
:1004E000005001400146054A1069800880008A07D3
:1004F000920F1043014A1061704700000050014004
:1005000010B5012000F0CAFD0320000600F0EAFD4E
:100510000120000400F0D6FD012000F033FD00BFF3
:1005200000F042FD0028FBD01D4800F09BFE01209A
:1005300000F068FD002000F065FD012000F04EFD98
:10054000002000F04BFD002000F08CFE0120FFF7A2
:100550006FFF0120FFF7F2FE00BFFFF79FFF0028AB
:10056000FBD0FFF7A7FF0020FFF762FF0220FFF795
:10057000F7FE0320FFF7B6FF0020FFF701FF012081
:10058000FFF70CFFFF200130FFF71CFF01220421C1
:10059000044800F07CFA0421024800F005F810BD80
:1005A000DF9B5713C00C00407FB505460C466A46DA
:1005B0002146284600F0E4F90098A0420FD1684691
:1005C000C07900280BD168464079012807D16846D8
:1005D0008079002803D16846007903280DD0029461
:1005E00000216846C17301214173002181730321F9
:1005F000017302A9284600F00DFA7FBD0020C04318
:100600000149486070470000000D004010B5FFF739
:10061000F5FF0121854800F00BF90221834800F025
:1006200007F90421814800F003F908217F4800F010
:10063000FFF810217D4800F0FBF820217B4800F0F6
:10064000F7F84021794800F0F3F88021774800F06E
:10065000EFF8FF210131754800F0EAF80121490265
:10066000724800F0E5F801218902704800F0E0F8D6
:100670000121C9026D4800F0DBF8012109036B4834
:1006800000F0D6F801214903684800F0D1F80121B3
:100690008903664800F0CCF80121C903634800F0E3
:1006A000C7F801216148403000F0C2F802215F48DC
:1006B000403000F0BDF804215C48403000F0B8F84C
:1006C00008215A48403000F0B3F810215748403014
:1006D00000F0AEF820215548403000F0A9F8402144
:1006E0005248403000F0A4F880215048403000F0DB
:1006F0009FF8FF2101314D48403000F099F8012169
:1007000049024A48403000F093F8012189024748E5
:10071000403000F08DF80121C9024448403000F01B
:1007200087F8012109034148403000F081F8012198
:1007300049033E48403000F07BF8012189033B48E3
:10074000403000F075F80121C9033848403000F00E
:100750006FF804213548803000F06AF808213348EA
:10076000803000F065F810213048803000F060F8EB
:1007700020212E48803000F05BF840212B4880304B
:1007800000F056F880212948803000F051F8FF2110
:1007900001312648803000F04BF8012149022348FE
:1007A000803000F045F8012189022048803000F0B7
:1007B0003FF80121C9021D48803000F039F80121BD
:1007C00009031A48803000F033F801211748C0307F
:1007D00000F02EF802211548C03000F029F804215D
:1007E0001248C03000F024F808211048C03000F052
:1007F0001FF810210D48C03000F01AF820210B48D6
:10080000C03000F015F840210848C03000F010F862
:100810000121C9020548C03000F00AF8012109038E
:100820000248C03000F004F810BD0000000C004089
:100830007CB504460D466A462946204600F0A0F8DD
:1008400068460079012809D02946204600F01DF9A4
:1008500001222946204600F049FB08E001222946F2
:10086000204600F043FB2946204600F00EF97CBDEF
:10087000012806D18107496842031143820751606C
:1008800007E001218907496801225203914352047C
:1008900051607047012806D181074968020211435F
:1008A0008207516007E0012189074968FF22013270
:1008B0009143920551607047012806D1810749682C
:1008C000820211438207516007E0012189074968CC
:1008D000012292029143120551607047012806D10E
:1008E00081074968C20211438207516007E0012174
:1008F000890749680122D2029143D20451607047AE
:10090000012806D1810749680122114382075160FD
:1009100007E0012189074968490849000122920737
:1009200051607047012806D18107496802221143AE
:100930008207516006E0012189074968022291433C
:1009400052075160704710B50446012C05D1FFF7DE
:10095000D7FF0120FFF7E6FF05E00020FFF7D0FFFB
:100960000020FFF7DFFF0020FFF794FF0020FFF7D4
:10097000A3FF0020FFF7B2FF0020FFF779FF10BDB3
:10098000F0B504460025002307E001269E400E40F6
:100990003546002D00D002E05B1C102BF5D300BFC4
:1009A000102B36D21D46116026680E403046E840B6
:1009B000012802D10126D67101E00026D6716668B1
:1009C0000E40EE403046012801D1967101E000262C
:1009D0009671A6680E40EE403046012801D156714E
:1009E00001E000265671E6686F00FE40B007800FF8
:1009F000002802D1002616710BE0012802D1012641
:100A0000167106E0022802D10226167101E00326C3
:100A10001671F0BDF0B502460B46002100240025FA
:100A200000BF2DE001268E4034461E682640354624
:100A3000A54224D110680646A6433046DE798E4092
:100A40003043106050680646A64330469E798E407B
:100A50003043506090680646A64330465E798E402B
:100A6000304390604F000326BE403446D0680646AF
:100A7000A64330461E794F00BE403043D060491C2B
:100A80001029CFD3F0BD816170474161704710B527
:100A90001346826A012B03D114460C43224602E01E
:100AA00014468C432246826210BD8AB202617047AE
:100AB00070B50024002000F015FB012000F0EEFAD4
:100AC0000120FFF78FFC0120FFF7B2FC00BF00BF41
:100AD00000BF00BF00BF0120FFF7BCFCFFF7FCFC1C
:100AE00000250CE000BFFFF7EBFC0028FBD0FFF770
:100AF000F3FCFFF7C1FC001984B2681CC5B2082DD5
:100B0000F0DB0020FFF794FC00BFFFF7BBFC0028E0
:100B1000FBD100F0C3FA0020FFF764FC2146E01788
:100B2000400F4018C01070BD10B50120400600F005
:100B3000D9FA012000F0B2FA012000F011FA0120E8
:100B4000FFF762FCFFF7C8FC0120FFF771FC0320F0
:100B500000F076FC0120FFF77DFC00BFFFF7B0FC42
:100B60000028FBD0FFF7B8FCFFF786FC84B200201A
:100B7000FFF75EFC00BFFFF785FC0028FBD100F00B
:100B80008DFA002000F0ECF90020FFF73DFC204634
:100B900010BD000010B501210B48FFF776FF0221C0
:100BA0000948FFF772FF00220121074800F09EF973
:100BB00000220221044800F099F900220121024894
:100BC000803800F093F910BD800C004000B585B06E
:100BD0001F20009030200190002003900290694671
:100BE0000874684600F02CFB002000F0E7FA05B01E
:100BF00000BD000010B500210948FFF756FF002195
:100C000007484030FFF751FF002105488030FFF7CB
:100C10004CFF00210248C030FFF747FF10BD000025
:100C2000000C004010B501214C4800F07DFA012174
:100C30004A480F3800F078FA01214848183800F087
:100C400073FA01214548193800F06EFA0121434832
:100C50001A3800F069FA012140481B3800F064FAA4
:100C600001213E481D3800F05FFA0121080600F01E
:100C70005BFA01213A4800F057FA01213848401E3A
:100C800000F052FA00213648801E00F04DFA002193
:100C90003348C01E00F048FA01213148001F00F01F
:100CA00043FA01212E48401F00F03EFA01212C4852
:100CB000801F00F039FA01212948C01F00F034FAE2
:100CC0000121480600F030FA0121264800F02CFAF4
:100CD00001212448801F00F027FA0121214808380B
:100CE00000F022FA01211F48093800F01DFA012105
:100CF0001C480A3800F018FA01211A480B3800F095
:100D000013FA012117480C3800F00EFA012115489A
:100D10000F3800F009FA01211248103800F004FAE7
:100D200001211048173800F0FFF9012103200006C7
:100D300000F0FAF901210C4800F0F6F901210A4807
:100D4000401E00F0F1F901210748801E00F0ECF987
:100D50000121880600F0E8F910BD00001F00000125
:100D600008000002180000030400000400B587B06A
:100D70000020059001216846017605A800F09AFA46
:100D800000200090019002900390012168460174B8
:100D9000417400F007FB07B000BD10B5FFF716FF68
:100DA000FFF7E4FFFFF73EFF002000F009F9012004
:100DB00000F0A8F9002000F039F90120FFF7C3FD89
:100DC00010BD000010B501242406601E01468842B3
:100DD00000D90CE0601E084948610321081F00F09B
:100DE00049F80020044988610720086100BF0520F8
:100DF0000149086110BD000000E000E010B572B6C6
:100E0000FFF7E0FF00210A2000F006FBFFF7C5FF17
:100E1000012000F01DF9FFF7EDFEFFF7F7FB0020C2
:100E200000F0D6FAFFF7B6FE0021642000F0F4FAD5
:100E3000052000F003F862B610BD000070B504464E
:100E4000002511E001210A48FFF71DFE0021642062
:100E500000F0E2FA01210648FFF717FE00216420A6
:100E600000F0DAFA681CC5B2A542EBDB70BD0000E9
:100E7000800C004010B5002819DB1A4A03231B021E
:100E8000D21883089B00D2588307DC0EFF23A340AF
:100E90009A438B071B0E8407E40EA3401A43114BA1
:100EA000032424021B198408A4001A5118E00E4AD6
:100EB00003071B0F083B9B089B00D2588307DC0EDF
:100EC000FF23A3409A438B071B0E8407E40EA34025
:100ED0001A43054B0407240F083CA408A4001A5128
:100EE00010BD000000E100E01CED00E07FB506460B
:100EF0000D4614466A4629463046FFF741FD0098E4
:100F0000A84217D16846C079002813D1002C03D11C
:100F10006846407900280DD1012C03D168464079FC
:100F2000012807D168468079002803D168460079F6
:100F3000012813D0029500206946C873002C01D106
:100F4000487302E0012069464873002168468173B6
:100F50000121017302A93046FFF75CFD7FBD00004F
:100F6000012806D10649896901221143044A916189
:100F700005E00349896949084900014A91617047C0
:100F800000280140012806D10649C9680122114301
:100F9000044AD16005E00349C96849084900014A8B
:100FA000D1607047002801400448006902210840D0
:100FB000002801D0012070470020FCE700280140F4
:100FC0000146054A506840084000CA07D20F104346
:100FD000014A50607047000040020040012806D1DD
:100FE0000749C96902061143054AD16106E004496F
:100FF000C969012212069143014AD161704700007C
:1010000040020040012806D10749C969C2051143C1
:10101000054AD16106E00449C9690122D20591431C
:10102000014AD1617047000040020040012806D10A
:101030000649496801221143044A516005E0034909
:10104000496849084900014A516070470028014039
:1010500010B50446012C02D10F4803680DE0022CA4
:1010600003D10D484038C36B07E0032C03D10A4875
:101070004038836B01E008480368180CD94389B2F3
:10108000884204D15806400E00F01EF902E04020CC
:1010900000F01AF910BD000040FDFF1F012806D125
:1010A0000749096B02051143054A116306E004492B
:1010B000096B012212059143014A11637047000038
:1010C000400200400146064A106B03231B040246FF
:1010D0009A4310461A460A401043014A106370476B
:1010E000400200400146064A106B07231B060246D9
:1010F0009A4310461A460A401043014A106370474B
:1011000040020040012806D1064909680122114326
:10111000044A116005E00349096849084900014A89
:10112000116070470028014030B502460B46002090
:101130000F2424061440FF252D066419002C09D025
:101140006419002C08D06419002C08D06419002CF4
:101150000BD107E00D4809E00C48001D06E00B48E4
:10116000083003E009480C3000E000BF00BF002851
:101170000BD0D2B201219140002B03D004680C4364
:10118000046002E004688C43046030BD2802004023
:1011900010B50446204600F001F810BD0004064AD0
:1011A00091697F231B040A469A4311461A4602405E
:1011B0001143014A9161704700020040012806D1A5
:1011C0000649896901221143044A916105E00349F6
:1011D000896949084900014A91617047000200404D
:1011E0000146064A9069022302469A4310460222AB
:1011F0000A401043014A906170470000000200401D
:101200000146064A9069082302469A43104608227E
:101210000A401043014A90617047000000020040FC
:101220000146064A9069702302469A43104670228E
:101230000A401043014A90617047000000020040DC
:1012400010B504462068FFF7A3FF6068FFF7E8FFCA
:10125000A068FFF7D5FFE068FFF7C2FF207CFFF72B
:10126000ADFF10BD01490861704700004002004019
:10127000012806D10649096901221143044A116176
:1012800005E00349096949084900014A11617047AD
:10129000000200400146064A10690F231B04024663
:1012A0009A4310461A460A401043014A106170479B
:1012B0000002004010B504462068FFF7EBFF2079DC
:1012C000FFF7D6FF10BD00004106490E014A9162AA
:1012D00070470000400200400146064AD0680723DC
:1012E0001B0202469A4310461A460A401043014A1E
:1012F000D0607047000200400146064AD0680723CC
:101300001B0402469A4310461A460A401043014AFB
:10131000D060704700020040012806D10749C96823
:10132000C2061143054AD16006E00449C96801229A
:10133000D2069143014AD16070470000000200408C
:10134000012806D10749C96842061143054AD16000
:1013500006E00449C968012252069143014AD1605E
:1013600070470000000200400146064AD068C023D2
:1013700002469A431046C0220A401043014AD060F8
:1013800070470000000200400146054AD068C008CE
:10139000C0004A07520F1043014AD0607047000056
:1013A0000002004010B504462068FFF7EDFF6068BA
:1013B000FFF7DAFFA068FFF78FFFE068FFF79CFFF9
:1013C000207CFFF7BDFF607CFFF7A6FF10BD00008B
:1013D000C105C90D014A11637047000000100140AA
:1013E000014802490860704700127A00100000208E
:1013F000084A916900BF0F221205904200D9104699
:1014000000BF044A92698A1A1202120A8242F8D371
:101410007047000000E000E070B504460D467D26F0
:10142000B60109E0002D03D0A847002800D070BD08
:101430003046FFF7DDFF641E002CF3D100BFF6E756
:1014400010B503460448834200D90346DC00204619
:10145000FFF7CEFF10BD0000A086010088B0FFF7A7
:10146000CDFCFFF74DF800BFFFF75EFB16490860A3
:10147000FFF71EFB0021154A03C213480068010351
:10148000081A029011487D27FF0060C800200690CE
:10149000284631463A46069BFEF780FE0C4A1289E2
:1014A0005300D418E2170392049105902246039B3F
:1014B000FEF774FE019100900023029AFEF786FE6B
:1014C00004490860D0E70000080000200000002068
:1014D00000FDFF1F0C000020F81400000000002099
:1014E00014000000040100000C150000140000208E
:1014F0006410000020010000000000000000000057
:0C150000000000000000000000127A0053
:04000005000000C136
:00000001FF
